{
    "_format": "hh-sol-artifact-1",
    "contractName": "DAO",
    "sourceName": "contracts/DAO.sol",
    "abi": [
        {
            "inputs": [
                {
                    "internalType": "address",
                    "name": "_customERC20Token",
                    "type": "address"
                },
                {
                    "internalType": "address",
                    "name": "_owner",
                    "type": "address"
                }
            ],
            "stateMutability": "nonpayable",
            "type": "constructor"
        },
        {
            "inputs": [],
            "name": "MAX_MEMBERS",
            "outputs": [
                {
                    "internalType": "uint256",
                    "name": "",
                    "type": "uint256"
                }
            ],
            "stateMutability": "view",
            "type": "function"
        },
        {
            "inputs": [
                {
                    "internalType": "string",
                    "name": "title",
                    "type": "string"
                },
                {
                    "internalType": "string",
                    "name": "description",
                    "type": "string"
                },
                {
                    "internalType": "uint256",
                    "name": "duration",
                    "type": "uint256"
                },
                {
                    "internalType": "uint256",
                    "name": "minimumVotes",
                    "type": "uint256"
                },
                {
                    "internalType": "string",
                    "name": "optionAText",
                    "type": "string"
                },
                {
                    "internalType": "string",
                    "name": "optionBText",
                    "type": "string"
                }
            ],
            "name": "createProposal",
            "outputs": [],
            "stateMutability": "nonpayable",
            "type": "function"
        },
        {
            "inputs": [],
            "name": "customERC20Token",
            "outputs": [
                {
                    "internalType": "contract CustomERC20",
                    "name": "",
                    "type": "address"
                }
            ],
            "stateMutability": "view",
            "type": "function"
        },
        {
            "inputs": [
                {
                    "internalType": "uint256",
                    "name": "proposalId",
                    "type": "uint256"
                }
            ],
            "name": "finalizeProposal",
            "outputs": [],
            "stateMutability": "nonpayable",
            "type": "function"
        },
        {
            "inputs": [],
            "name": "initialTokenAmount",
            "outputs": [
                {
                    "internalType": "uint256",
                    "name": "",
                    "type": "uint256"
                }
            ],
            "stateMutability": "view",
            "type": "function"
        },
        {
            "inputs": [
                {
                    "internalType": "address",
                    "name": "",
                    "type": "address"
                }
            ],
            "name": "isMember",
            "outputs": [
                {
                    "internalType": "bool",
                    "name": "",
                    "type": "bool"
                }
            ],
            "stateMutability": "view",
            "type": "function"
        },
        {
            "inputs": [],
            "name": "joinDAO",
            "outputs": [],
            "stateMutability": "nonpayable",
            "type": "function"
        },
        {
            "inputs": [],
            "name": "nextProposalId",
            "outputs": [
                {
                    "internalType": "uint256",
                    "name": "",
                    "type": "uint256"
                }
            ],
            "stateMutability": "view",
            "type": "function"
        },
        {
            "inputs": [],
            "name": "owner",
            "outputs": [
                {
                    "internalType": "address",
                    "name": "",
                    "type": "address"
                }
            ],
            "stateMutability": "view",
            "type": "function"
        },
        {
            "inputs": [
                {
                    "internalType": "uint256",
                    "name": "",
                    "type": "uint256"
                }
            ],
            "name": "proposals",
            "outputs": [
                {
                    "internalType": "uint256",
                    "name": "id",
                    "type": "uint256"
                },
                {
                    "internalType": "string",
                    "name": "title",
                    "type": "string"
                },
                {
                    "internalType": "string",
                    "name": "description",
                    "type": "string"
                },
                {
                    "internalType": "string",
                    "name": "optionAText",
                    "type": "string"
                },
                {
                    "internalType": "string",
                    "name": "optionBText",
                    "type": "string"
                },
                {
                    "internalType": "uint256",
                    "name": "deadline",
                    "type": "uint256"
                },
                {
                    "internalType": "uint256",
                    "name": "minimumVotes",
                    "type": "uint256"
                },
                {
                    "internalType": "uint256",
                    "name": "optionA",
                    "type": "uint256"
                },
                {
                    "internalType": "uint256",
                    "name": "optionB",
                    "type": "uint256"
                },
                {
                    "internalType": "bool",
                    "name": "executed",
                    "type": "bool"
                },
                {
                    "internalType": "uint8",
                    "name": "winningOption",
                    "type": "uint8"
                }
            ],
            "stateMutability": "view",
            "type": "function"
        },
        {
            "inputs": [
                {
                    "internalType": "address",
                    "name": "tokenAddress",
                    "type": "address"
                }
            ],
            "name": "setCustomERC20TokenAddress",
            "outputs": [],
            "stateMutability": "nonpayable",
            "type": "function"
        },
        {
            "inputs": [
                {
                    "internalType": "uint256",
                    "name": "proposalId",
                    "type": "uint256"
                },
                {
                    "internalType": "bool",
                    "name": "supportsOptionA",
                    "type": "bool"
                }
            ],
            "name": "vote",
            "outputs": [],
            "stateMutability": "nonpayable",
            "type": "function"
        }
    ],
    "bytecode": "0x6080604052678ac7230489e8000060025534801561001c57600080fd5b5060405161103838038061103883398101604081905261003b91610088565b600080546001600160a01b039384166001600160a01b031991821617909155600580549290931691161790556100bb565b80516001600160a01b038116811461008357600080fd5b919050565b6000806040838503121561009b57600080fd5b6100a48361006c565b91506100b26020840161006c565b90509250929050565b610f6e806100ca6000396000f3fe608060405234801561001057600080fd5b50600436106100b45760003560e01c8063c9d27afe11610071578063c9d27afe1461017f578063df609ab614610192578063ea041be7146101a5578063ea0e35b1146101b8578063efc341e3146101c1578063f63d13d7146101d457600080fd5b8063013cf08b146100b95780632ab09d14146100ec5780634e505367146101035780635652077c1461010c5780638da5cb5b14610121578063a230c5241461014c575b600080fd5b6100cc6100c7366004610bd6565b6101dc565b6040516100e39b9a99989796959493929190610c3c565b60405180910390f35b6100f560035481565b6040519081526020016100e3565b6100f560025481565b61011f61011a366004610bd6565b610456565b005b600554610134906001600160a01b031681565b6040516001600160a01b0390911681526020016100e3565b61016f61015a366004610cd0565b60016020526000908152604090205460ff1681565b60405190151581526020016100e3565b61011f61018d366004610d00565b61061a565b61011f6101a0366004610d7e565b6107fa565b600054610134906001600160a01b031681565b6100f56103e881565b61011f6101cf366004610cd0565b610933565b61011f6109e9565b600460205260009081526040902080546001820180549192916101fe90610e58565b80601f016020809104026020016040519081016040528092919081815260200182805461022a90610e58565b80156102775780601f1061024c57610100808354040283529160200191610277565b820191906000526020600020905b81548152906001019060200180831161025a57829003601f168201915b50505050509080600201805461028c90610e58565b80601f01602080910402602001604051908101604052809291908181526020018280546102b890610e58565b80156103055780601f106102da57610100808354040283529160200191610305565b820191906000526020600020905b8154815290600101906020018083116102e857829003601f168201915b50505050509080600301805461031a90610e58565b80601f016020809104026020016040519081016040528092919081815260200182805461034690610e58565b80156103935780601f1061036857610100808354040283529160200191610393565b820191906000526020600020905b81548152906001019060200180831161037657829003601f168201915b5050505050908060040180546103a890610e58565b80601f01602080910402602001604051908101604052809291908181526020018280546103d490610e58565b80156104215780601f106103f657610100808354040283529160200191610421565b820191906000526020600020905b81548152906001019060200180831161040457829003601f168201915b505050600584015460068501546007860154600887015460099097015495969295919450925060ff808216916101009004168b565b6005546001600160a01b031633146104895760405162461bcd60e51b815260040161048090610e93565b60405180910390fd5b600081815260046020526040902060058101544210156104eb5760405162461bcd60e51b815260206004820152601e60248201527f566f74696e6720706572696f64206973207374696c6c206f6e676f696e6700006044820152606401610480565b600981015460ff161561054b5760405162461bcd60e51b815260206004820152602260248201527f50726f706f73616c2068617320616c7265616479206265656e20657865637574604482015261195960f21b6064820152608401610480565b8060060154816008015482600701546105649190610eee565b10156105b25760405162461bcd60e51b815260206004820152601960248201527f4d696e696d756d20766f746573206e6f742072656163686564000000000000006044820152606401610480565b60098101805460ff191660011790556008810154600782015411156105e65760098101805461ff0019166101001790555050565b80600701548160080154111561060b5760098101805461ff0019166102001790555050565b600901805461ff001916905550565b60008281526004602052604090206005810154421061067b5760405162461bcd60e51b815260206004820152601760248201527f566f74696e6720706572696f642068617320656e6465640000000000000000006044820152606401610480565b3360009081526001602052604090205460ff166106d25760405162461bcd60e51b81526020600482015260156024820152744f6e6c79206d656d626572732063616e20766f746560581b6044820152606401610480565b336000908152600a8201602052604090205460ff161561072d5760405162461bcd60e51b8152602060048201526016602482015275155cd95c881a185cc8185b1c9958591e481d9bdd195960521b6044820152606401610480565b60005460405163079cc67960e41b8152336004820152670de0b6b3a764000060248201526001600160a01b03909116906379cc679090604401600060405180830381600087803b15801561078057600080fd5b505af1158015610794573d6000803e3d6000fd5b5050505081156107be5760018160070160008282546107b39190610eee565b909155506107d99050565b60018160080160008282546107d39190610eee565b90915550505b336000908152600a90910160205260409020805460ff191660011790555050565b6005546001600160a01b031633146108245760405162461bcd60e51b815260040161048090610e93565b3360009081526001602052604090205460ff1661088d5760405162461bcd60e51b815260206004820152602160248201527f4f6e6c79206d656d626572732063616e206372656174652070726f706f73616c6044820152607360f81b6064820152608401610480565b600380546000916004918391826108a383610f06565b919050558152602001908152602001600020905060016003546108c69190610f21565b81556108d6600182018c8c610b3d565b506108e5600282018a8a610b3d565b506108f4600382018686610b3d565b50610903600482018484610b3d565b5061090e8742610eee565b600582015560068101959095555050506009909101805460ff19169055505050505050565b6005546001600160a01b0316331461095d5760405162461bcd60e51b815260040161048090610e93565b6000546001600160a01b0316156109c75760405162461bcd60e51b815260206004820152602860248201527f437573746f6d455243323020746f6b656e206164647265737320697320616c726044820152671958591e481cd95d60c21b6064820152608401610480565b600080546001600160a01b0319166001600160a01b0392909216919091179055565b3360009081526001602052604090205460ff1615610a495760405162461bcd60e51b815260206004820152601860248201527f5573657220697320616c72656164792061206d656d62657200000000000000006044820152606401610480565b336000818152600160208190526040808320805460ff1916909217909155905460025491516308934a5f60e31b8152600481019390935260248301919091526001600160a01b03169063449a52f890604401600060405180830381600087803b158015610ab557600080fd5b505af1158015610ac9573d6000803e3d6000fd5b5050600054600254604051630c5f6e3b60e31b815233600482015230602482015260448101919091526001600160a01b0390911692506362fb71d89150606401600060405180830381600087803b158015610b2357600080fd5b505af1158015610b37573d6000803e3d6000fd5b50505050565b828054610b4990610e58565b90600052602060002090601f016020900481019282610b6b5760008555610bb1565b82601f10610b845782800160ff19823516178555610bb1565b82800160010185558215610bb1579182015b82811115610bb1578235825591602001919060010190610b96565b50610bbd929150610bc1565b5090565b5b80821115610bbd5760008155600101610bc2565b600060208284031215610be857600080fd5b5035919050565b6000815180845260005b81811015610c1557602081850181015186830182015201610bf9565b81811115610c27576000602083870101525b50601f01601f19169290920160200192915050565b60006101608d8352806020840152610c568184018e610bef565b90508281036040840152610c6a818d610bef565b90508281036060840152610c7e818c610bef565b90508281036080840152610c92818b610bef565b60a0840199909952505060c081019590955260e0850193909352610100840191909152151561012083015260ff166101409091015295945050505050565b600060208284031215610ce257600080fd5b81356001600160a01b0381168114610cf957600080fd5b9392505050565b60008060408385031215610d1357600080fd5b8235915060208301358015158114610d2a57600080fd5b809150509250929050565b60008083601f840112610d4757600080fd5b50813567ffffffffffffffff811115610d5f57600080fd5b602083019150836020828501011115610d7757600080fd5b9250929050565b60008060008060008060008060008060c08b8d031215610d9d57600080fd5b8a3567ffffffffffffffff80821115610db557600080fd5b610dc18e838f01610d35565b909c509a5060208d0135915080821115610dda57600080fd5b610de68e838f01610d35565b909a50985060408d0135975060608d0135965060808d0135915080821115610e0d57600080fd5b610e198e838f01610d35565b909650945060a08d0135915080821115610e3257600080fd5b50610e3f8d828e01610d35565b915080935050809150509295989b9194979a5092959850565b600181811c90821680610e6c57607f821691505b60208210811415610e8d57634e487b7160e01b600052602260045260246000fd5b50919050565b60208082526025908201527f4f6e6c7920746865206f776e65722063616e2063616c6c20746869732066756e60408201526431ba34b7b760d91b606082015260800190565b634e487b7160e01b600052601160045260246000fd5b60008219821115610f0157610f01610ed8565b500190565b6000600019821415610f1a57610f1a610ed8565b5060010190565b600082821015610f3357610f33610ed8565b50039056fea264697066735822122063067dec3ddacc337cc532cda63d55bd8b592c0cfd5ae66f49f2ff2d51fed32564736f6c63430008090033",
    "linkReferences": {},
    "deployedLinkReferences": {}
}